S01900004E6976656C5F526567756C61746F72696F2E7372656321
S113000071C000008FC000008DC000008BC00000D4
S113001089C0000087C0000085C0000083C00000C4
S113002081C000007FC000007DC000007BC00000D4
S113003079C0000077C0000075C0000073C00000E4
S113004071C0000073C200006DC000006BC00000EE
S113005069C0000067C0000065C0000063C0000004
S113006061C00000C5C500005DC000005BC00000A9
S113007059C0000057C0000055C0000053C0000024
S1130080B0C200004FC000004DC000004BC00000D3
S113009049C0000047C0000045C0000043C0000044
S11300A041C000003FC000003DC000003BC0000054
S11300B039C0000037C0000035C0000033C0000064
S11300C031C000002FC000002DC000002BC0000074
S11300D029C0000027C0000025C0000023C0000084
S11300E021C0000011241FBECFEFD1E2DEBFCDBF7F
S11300F000E00CBF13E0A0E0B2E0E8EEF5E100E0C0
S11301000BBF02C007900D92A63BB107D9F724E0BC
S1130110A6EBB3E001C01D92A13EB207E1F7E8D51A
S11301200C94F20A6DCFCF92DF92EF92FF920F936D
S11301301F93CF93DF93CDB7DEB7A0970FB6F89494
S1130140DEBF0FBECDBF6B017A014FE150E0BC01B1
S1130150CE01019647D718A26CE270E0CE01019659
S113016036D7009781F0FC0111928F01CE010196E0
S113017011D7F60191838083C8010CD7F7019183CD
S1130180808381E001C080E0A0960FB6F894DEBFC2
S11301900FBECDBFDF91CF911F910F91FF90EF90D4
S11301A0DF90CF9008958F929F92AF92BF92CF929B
S11301B0DF92EF92FF920F931F93CF93DF93CDB70C
S11301C0DEB7C458D1090FB6F894DEBF0FBECDBF59
S11301D0FC0190819D3409F08AC081818A3309F041
S11301E086C08F010E5F1F4FAE014F575F4FBE0198
S11301F06D577F4FC80197DF882309F464C0CD573A
S1130200DF4F68817981C358D040072E000C880BDA
S1130210990BAFD520E030E040EA52E40ED676D513
S11302206B017C01CF57DF4F68817981C158D04081
S1130230072E000C880B990B9CD520E030E048EC8D
S113024053E4FBD563D54B015C0181E0C114D104B7
S1130250E104F10409F480E061E081149104A10453
S1130260B10409F460E018D2A5019401C701B601F4
S113027016D3CE57DF4F8881C258D0408F93CF57C3
S1130280DF4F8881C158D0408F93CC57DF4F88818E
S1130290C458D0408F93CD57DF4F8881C358D04086
S11302A08F9380E092E09F938F931F9280E88F93C7
S11302B0CE0101969F938F93ACD60FB6F894DEBF10
S11302C00FBECDBFD0C01F930F9381E192E09F93E7
S11302D08F931F9280E88F93CE0101969F938F9303
S11302E098D60FB6F894DEBF0FBECDBFBCC0943411
S11302F059F4FFD289E0E1E3F2E0DE0111960190C6
S11303000D928A95E1F7AFC0953459F455D38FE037
S1130310EAE3F2E0DE01119601900D928A95E1F78D
S1130320A2C0933559F418D288E0E9E4F2E0DE0182
S1130330119601900D928A95E1F795C0983451F485
S113034088E0E1E5F2E0DE01119601900D928A95D4
S1130350E1F789C09F3351F483E1E9E5F2E0DE017E
S1130360119601900D928A95E1F77DC09134C1F404
S113037081818A33A9F43296FF93EF938CE692E05D
S11303809F938F931F9280E88F93CE0101969F9342
S11303908F933FD60FB6F894DEBF0FBECDBF63C0B8
S11303A09734C1F481818A33A9F43296FF93EF9391
S11303B08FE792E09F938F931F9280E88F93CE01F3
S11303C001969F938F9325D60FB6F894DEBF0FBE88
S11303D0CDBF49C09635D1F481818A33B9F4CF01B8
S11303E00296D8D59F938F938DE892E09F938F9335
S11303F01F9280E88F93CE0101969F938F9309D625
S11304000FB6F894DEBF0FBECDBF2DC09435C1F436
S113041081818A33A9F43296FF93EF938DE992E0B8
S11304209F938F931F9280E88F93CE0101969F93A1
S11304308F93EFD50FB6F894DEBF0FBECDBF13C0B8
S1130440FF93EF9382EB92E09F938F931F9280E848
S11304508F93CE0101969F938F93DBD50FB6F894BB
S1130460DEBF0FBECDBFCE010196A8D3CC57DF4F60
S11304700FB6F894DEBF0FBECDBFDF91CF911F91B1
S11304800F91FF90EF90DF90CF90BF90AF909F902F
S11304908F900895A0E0B0E0880F991FAA1FBB1F9A
S11304A0880F991FAA1FBB1F9C01AD01220F331F88
S11304B0441F551F220F331F441F551F60E074E271
S11304C084EF90E045D5C901019708950097B9F0EC
S11304D0E1DF20E5209380002AE0209381009093BF
S11304E089008093880090938B0080938A00EFE6C4
S11304F0F0E080818260808381E08093B703089577
S1130500009799F0C7DF20E4209390002AE020931D
S113051091009093990080939800E1E7F0E0808146
S11305208260808381E08093B60308951F920F92C6
S11305300FB60F9211240BB60F924F935F936F93E4
S11305407F938F939F93AF93BF93EF93FF93809188
S1130550D803882371F0E9ECF3E080819181A281D2
S1130560B3810196A11DB11D80839183A283B383BE
S11305700DC0E9ECF3E080819181A281B381019700
S1130580A109B10980839183A283B383E9ECF3E0E9
S1130590408151816281738184819581A681B78173
S11305A0481759076A077B0759F410928100EFE650
S11305B0F0E080818D7F80831092D7031092B7037F
S11305C0FF91EF91BF91AF919F918F917F916F9127
S11305D05F914F910F900BBE0F900FBE0F901F9025
S11305E018951F920F920FB60F9211240BB60F920B
S11305F04F935F936F937F938F939F93AF93BF9327
S1130600EF93FF938091C703882371F0E8EBF3E045
S113061080819181A281B3810196A11DB11D808346
S11306209183A283B3830DC0E8EBF3E080819181D1
S1130630A281B3810197A109B10980839183A28327
S1130640B383E8EBF3E0408151816281738184815B
S11306509581A681B781481759076A077B0759F422
S113066010929100E1E7F0E080818D7F8083109209
S1130670C6031092B603FF91EF91BF91AF919F9182
S11306808F917F916F915F914F910F900BBE0F905F
S11306900FBE0F901F901895882339F082B1857F83
S11306A082B981E08093D90305C082B18A6082B99E
S11306B01092D903662339F082B18F7D82B981E02B
S11306C08093C803089582B1806282B91092C803EE
S11306D0089584B1806284B981B1816081B981B1A6
S11306E0826081B984B1806484B981B1846081B944
S11306F081B1886081B98DB188608DB981B1806123
S113070081B981B1806281B9E9ECF3E080E197E2DB
S11307109387828780ED97E09587848784E690E0CD
S1130720918780871686E8EBF3E020EE3EE233877C
S1130730228728EE33E035872487918780871686C1
S113074060E080E0A9DF1092800010928100109296
S113075090001092910008951092810010929100DF
S1130760EFE6F0E080818D7F8083E1E7F0E0808137
S11307708D7F80831092D7031092C6031092B70323
S11307801092B60308958F929F92AF92BF92CF9228
S1130790DF92EF92FF924B015C0169017A01DCDF89
S11307A0E9ECF3E084829582A682B782C092BC030E
S11307B0D092BD03E092BE03F092BF038081918189
S11307C0A281B38188159905AA05BB053CF481E093
S11307D08093D80382B18A7F82B90AC088169906A9
S11307E0AA06BB062CF41092D80382B1856082B9A4
S11307F08091B8039091B903A091BA03B091BB035F
S11308008C159D05AE05BF053CF481E08093C703BC
S113081082B18F7E82B90AC0C816D906EA06FB06E1
S11308202CF41092C70382B1806182B98091C9030C
S11308309091CA03A091CB03B091CC03881699067A
S1130840AA06BB0659F08091D903882339F0E9EC54
S1130850F3E081E086878285938538DE8091B80352
S11308609091B903A091BA03B091BB03C816D906FD
S1130870EA06FB0659F08091C803882339F0E8EBB7
S1130880F3E081E08687828593853ADEFF90EF90DE
S1130890DF90CF90BF90AF909F908F9008958F92EC
S11308A09F92AF92BF92CF92DF92EF92FF9280908D
S11308B0B8039090B903A090BA03B090BB03C09062
S11308C0C903D090CA03E090CB03F090CC03280D69
S11308D0391D4A1D5B1D6C0D7D1D8E1D9F1D53DF33
S11308E0FF90EF90DF90CF90BF90AF909F908F904C
S11308F00895FF920F931F93CF93DF93CDB7DEB785
S1130900C456D1090FB6F894DEBF0FBECDBF1F92F7
S113091080E58F9385EC92E09F938F931F920F2E27
S1130920F4E6FF2EF02DFF928E010F5F1F4F1F93F1
S11309300F936FD3C80142D181E08F9380E98F93E5
S113094088ED92E09F938F931F92FF921F930F93D2
S113095060D3C80133D1E8EBF3E083818F938281C4
S11309608F9381818F9380818F93E9ECF3E083816E
S11309708F9382818F9381818F9380818F938BEE6C
S113098092E09F938F931F92FF921F930F9341D3F3
S1130990C80114D10FB6F894DEBF0FBECDBFCC5939
S11309A0DF4F0FB6F894DEBF0FBECDBFDF91CF91FE
S11309B01F910F91FF900895FF920F931F93CF9370
S11309C0DF93CDB7DEB7C456D1090FB6F894DEBFB6
S11309D00FBECDBF8091C803882319F022E033E015
S11309E002C026E033E08091D903882319F082E025
S11309F093E002C086E093E03F932F939F938F93FD
S1130A0088E193E09F938F931F920F2EF4E6FF2EBD
S1130A10F02DFF928E010F5F1F4F1F930F93F9D29A
S1130A20C801CCD09091C6038091D7031F929F93A5
S1130A301F928F9385E393E09F938F931F92FF926E
S1130A401F930F93E6D2C801B9D08091B6030FB6B5
S1130A50F894DEBF0FBECDBF882319F029E033E040
S1130A6002C020E133E08091B703882319F089E0C4
S1130A7093E002C080E193E03F932F939F938F9381
S1130A808EE493E09F938F931F9284E68F938E015D
S1130A900F5F1F4F1F930F93BCD2C8018FD00FB6A7
S1130AA0F894DEBF0FBECDBFCC59DF4F0FB6F8941C
S1130AB0DEBF0FBECDBFDF91CF911F910F91FF908D
S1130AC00895CF93DF931F92CDB7DEB7611522EC63
S1130AD0720721E082079105D9F422E02093C00037
S1130AE0DC01CB01880F991FAA1FBB1F880F991F18
S1130AF0AA1FBB1F9C01AD01220F331F441F551FAA
S1130B0060E074E284EF90E023D2215031091DC0EB
S1130B101092C000DC01CB01880F991FAA1FBB1FD4
S1130B20880F991FAA1FBB1F9C01AD01220F331F01
S1130B30441F551F220F331F441F551F60E074E2EA
S1130B4084EF90E005D2215031093093C500209301
S1130B50C40088E98093C10086E08093C2001092AB
S1130B60DE041092DF041092E0041092DB03109272
S1130B70DA0304C08091C600898389818091C00012
S1130B808823C4F30F90DF91CF91089590935D046F
S1130B9080935C0408959091C00095FFFCCF8093EE
S1130BA0C6000895CF93DF93EC0102C02196F3DFD2
S1130BB088818111FBCFDF91CF910895F3DF85E622
S1130BC093E0F0CF08950F931F93CF93DF938C019D
S1130BD070E0EB012197AE016CED73E003D2C00F1E
S1130BE0D11F188281E0DF91CF911F910F91089559
S1130BF01F920F920FB60F9211240BB60F922F93E0
S1130C003F934F935F936F937F938F939F93AF9390
S1130C10BF93EF93FF938091C6008C3331F481E04E
S1130C208093DA031092DB032AC08E33A1F49091EF
S1130C30DA03992381F0E091DB03F0E0E452FC4F06
S1130C4010821092DA03E0915C04F0915D04309715
S1130C50B1F0199514C09091DA03992381F0E091D1
S1130C60DB03EF3760F48A3051F08D3041F091E0CE
S1130C709E0F9093DB03F0E0E452FC4F808380915D
S1130C80DB038F3720F01092DA031092DB03FF911D
S1130C90EF91BF91AF919F918F917F916F915F91F0
S1130CA04F913F912F910F900BBE0F900FBE0F905D
S1130CB01F901895CF93DF93CDB7DEB7C058D109F5
S1130CC00FB6F894DEBF0FBECDBF60E8CE0101962B
S1130CD07ADF882319F0CE01019665DAC058DF4F18
S1130CE00FB6F894DEBF0FBECDBFDF91CF9108954C
S1130CF060E072EC81E090E0E4DEEBDC8AE596E013
S1130D0045DF789489EA93E059DFFFCF04D06894F3
S1130D10B1118DC0089570D088F09F5790F0B92F0D
S1130D209927B751A0F0D1F0660F771F881F991F3C
S1130D301AF0BA95C9F712C0B13081F077D0B1E09A
S1130D40089574C0672F782F8827B85F39F0B93FAA
S1130D50CCF3869577956795B395D9F73EF490953E
S1130D608095709561957F4F8F4F9F4F0895E894BC
S1130D7009C097FB3EF490958095709561957F4FDF
S1130D808F4F9F4F9923A9F0F92F96E9BB2793958D
S1130D90F695879577956795B795F111F8CFFAF49D
S1130DA0BB0F11F460FF1BC06F5F7F4F8F4F9F4FCE
S1130DB016C0882311F096E911C0772321F09EE82C
S1130DC0872F762F05C0662371F096E8862F70E092
S1130DD060E02AF09A95660F771F881FDAF7880F6C
S1130DE09695879597F9089557FD9058440F551F88
S1130DF059F05F3F71F04795880F97FB991F61F099
S1130E009F3F79F087950895121613061406551F0F
S1130E10F2CF4695F1DF08C0161617061806991F7B
S1130E20F1CF86957105610508940895E894BB2770
S1130E3066277727CB0197F908950BD078C069D03E
S1130E4028F06ED018F0952309F05AC05FC0112421
S1130E50EECFCADFA0F3959FD1F3950F50E0551F55
S1130E60629FF001729FBB27F00DB11D639FAA27FB
S1130E70F00DB11DAA1F649F6627B00DA11D661F4A
S1130E80829F2227B00DA11D621F739FB00DA11D6B
S1130E90621F839FA00D611D221F749F3327A00D25
S1130EA0611D231F849F600D211D822F762F6A2FC1
S1130EB011249F5750408AF0E1F088234AF0EE0F46
S1130EC0FF1FBB1F661F771F881F91505040A9F753
S1130ED09E3F510570F014C0AACF5F3FECF3983EDB
S1130EE0DCF3869577956795B795F795E7959F5FBA
S1130EF0C1F7FE2B880F911D9695879597F9089554
S1130F0097F99F6780E870E060E008959FEF80ECB8
S1130F10089500240A94161617061806090608955B
S1130F2000240A9412161306140605060895092EC1
S1130F300394000C11F4882352F0BB0F40F4BF2B30
S1130F4011F460FF04C06F5F7F4F8F4F9F4F089570
S1130F50A1E21A2EAA1BBB1BFD010DC0AA1FBB1FB9
S1130F60EE1FFF1FA217B307E407F50720F0A21B2B
S1130F70B30BE40BF50B661F771F881F991F1A9498
S1130F8069F760957095809590959B01AC01BD01C2
S1130F90CF010895FC0188279927E89421912032F4
S1130FA0E9F3293010F02E30C8F32B3239F02D320A
S1130FB031F4689403C025D0820F911D21912053F0
S1130FC02A30C8F31EF4909581959F4F0895FC0133
S1130FD08191861721F08823D9F7992708953197AD
S1130FE0CF010895FB01DC014150504048F00190CD
S1130FF00D920020C9F701C01D9241505040E0F706
S113100008957AE0979F902D879F802D910D11244C
S113101008950F931F93CF93DF93CDB7DEB72E9729
S11310200FB6F894DEBF0FBECDBF0E891F89888D21
S1131030998D26E02C831A83098397FF02C080E0F0
S113104090E801979E838D83AE01445E5F4F6A8D65
S11310507B8DCE01019619D04D815E8157FD0AC06A
S11310602F813885421753070CF49A01F801E20FD7
S1131070F31F10822E960FB6F894DEBF0FBECDBFBD
S1131080DF91CF911F910F9108952F923F924F922C
S11310905F926F927F928F929F92AF92BF92CF9204
S11310A0DF92EF92FF920F931F93CF93DF93CDB70D
S11310B0DEB72B970FB6F894DEBF0FBECDBF6C0121
S11310C07B018A01FC0117821682838181FFBFC1E3
S11310D0CE0101963C01F6019381F70193FD8591C0
S11310E093FF81917F01882309F4ADC1853239F4DE
S11310F093FD859193FF81917F01853221F4B6019F
S113110090E0D6D1E8CF912C212C312CFFE1F315BE
S1131110D8F08B3279F038F4803279F08332A1F44C
S1131120232D20611DC08D3261F0803369F4232D9D
S1131130216016C0832D8260382EE32DE4603E2E9C
S11311402AC0F32DF8601DC037FC2DC020ED280FF8
S11311502A3040F08E32B9F436FC75C1232D206458
S1131160322E19C036FE06C08AE0989E200D112446
S1131170922E11C0EAE02E9E200D1124222EF32D72
S1131180F0623F2E08C08C3621F4832D8068382EFF
S113119002C0883641F4F70193FD859193FF819154
S11311A07F018111B3CF982F9F7D9554933028F4FC
S11311B00C5F1F4F9FE399830DC0833631F0833753
S11311C071F0833509F055C020C0F801808189830E
S11311D00E5F1F4F88248394912C530112C0280161
S11311E0F2E04F0E511CF801A080B18036FE03C01E
S11311F0692D70E002C06FEF7FEFC5014ED14C0145
S11312008201F32DFF773F2E15C0280122E0420E04
S1131210511CF801A080B18036FE03C0692D70E036
S113122002C06FEF7FEFC5012DD14C01F32DF068A3
S11312303F2E820133FC19C0822D90E08816990656
S1131240A0F4B60180E290E033D12A94F5CFF50101
S113125037FC859137FE81915F01B60190E028D17A
S113126021102A9421E0821A91088114910479F7BB
S1131270E1C0843611F0893639F5F80137FE07C02C
S113128060817181828193810C5F1F4F08C06081EE
S11312907181072E000C880B990B0E5F1F4FF32DE5
S11312A0FF763F2E97FF09C09095809570956195C4
S11312B07F4F8F4F9F4FF0683F2E2AE030E0A3010D
S11312C033D1882E861844C0853731F4232D2F7EE0
S11312D0B22E2AE030E025C0932D997FB92E8F36A7
S11312E0C1F018F4883579F0AEC0803719F088372A
S11312F021F0A9C0E92FE061BE2EB4FE0DC0FB2D84
S1131300F460BF2E09C034FE0AC0292F2660B22E15
S113131006C028E030E005C020E130E002C020E152
S113132032E0F801B7FE07C0608171818281938148
S11313300C5F1F4F06C06081718180E090E00E5FFA
S11313401F4FA301F1D0882E8618FB2DFF773F2E67
S113135036FE0DC0232D2E7FA22E891458F434FEA0
S11313600BC032FC09C0832D8E7EA82E05C0B82C7C
S1131370A32C03C0B82C01C0B92CA4FE0FC0FE01DD
S1131380E80DF11D8081803321F49A2D997EA92ED8
S113139009C0A2FE06C0B394B39404C08A2D867813
S11313A009F0B394A3FC10C0A0FE06C0B21480F4EC
S11313B0280C922C9B180DC0B21458F4B60180E28C
S11313C090E076D0B394F8CFB21418F42B1802C07E
S11313D0982C212CA4FE0FC0B60180E390E068D0C5
S11313E0A2FE16C0A1FC03C088E790E002C088E515
S11313F090E0B6010CC08A2D867851F0A1FE02C09F
S11314008BE201C080E2A7FC8DE2B60190E050D0EF
S1131410891430F4B60180E390E04AD09A94F8CF6E
S11314208A94F301E80DF11D8081B60190E040D06B
S11314308110F6CF222009F44ECEB60180E290E06E
S113144037D02A94F7CFF6018681978102C08FEFB7
S11314509FEF2B960FB6F894DEBF0FBECDBFDF9182
S1131460CF911F910F91FF90EF90DF90CF90BF909D
S1131470AF909F908F907F906F905F904F903F9030
S11314802F900895FC010590615070400110D8F729
S1131490809590958E0F9F1F0895FC0161507040B8
S11314A001900110D8F7809590958E0F9F1F089595
S11314B00F931F93CF93DF93FB01238121FD03C07F
S11314C08FEF9FEF2CC022FF16C0468157812481E5
S11314D035814217530744F4A081B1819D012F5FE8
S11314E03F4F318320838C93268137812F5F3F4F79
S11314F03783268314C08B01EC01FB010084F18542
S1131500E02D1995892BE1F6D80116968D919C91C1
S11315101797019617969C938E931697CE01DF9199
S1131520CF911F910F910895FA01AA27283051F104
S1131530203181F1E8946F936E7F6E5F7F4F8F4F00
S11315409F4FAF4FB1E03ED0B4E03CD0670F781F5F
S1131550891F9A1FA11D680F791F8A1F911DA11D44
S11315606A0F711D811D911DA11D20D009F468947D
S11315703F912AE0269F11243019305D3193DEF625
S1131580CF010895462F4770405D4193B3E00FD0DB
S1131590C9F7F6CF462F4F70405D4A3318F0495DC6
S11315A031FD4052419302D0A9F7EACFB4E0A695A9
S11315B09795879577956795BA95C9F700976105CB
S11315C0710508959B01AC010A2E06945795479521
S11315D037952795BA95C9F7620F731F841F951F16
S10B15E0A01D0895F894FFCF4B
S11315E84F4B3A4D4F56455F58593A25642C25645C
S11315F8004552523A494E56414C49445F50415273
S1131608414D535F4D4F56455F58593A3C25733EFB
S1131618004F4B3A4445425547004F4B3A444542E4
S113162855475F5354415445004F4B3A53544F5018
S1131638004F4B3A484F4D45004F4B3A5354415491
S113164855533A49444C453A302C30004F4B3A41B3
S1131658524D5F504F534954494F4E3A2573004FEA
S11316684B3A475249505045523A2573004F4B3A2A
S11316785345545F53504545443A2564004F4B3A0B
S113168841524D5F5452414A4543544F52593A25A9
S113169873004552523A554E4B4E4F574E5F434D89
S11316A8443A25730053544550535F5045525F4D97
S11316B84D5F483A2025640053544550535F5045C4
S11316C8525F4D4D5F563A20256400504F535F4892
S11316D83A20256C642C20504F535F563A20256CD1
S11316E86400594553004E4F004143544956450040
S11316F853544F5050454400485F454E41424C4571
S1131708443A2025732C20565F454E41424C4544AB
S11317183A20257300485F53544154453A202564C0
S11317282C20565F53544154453A202564005449AB
S11317384D4552313A2025732C2054494D45523396
S11317483A202573000D0A00504F533A252E32666D
S11317582C252E3266005354415455533A25732C84
S1131768252E32662C252E32660049444C45004D00
S11317784F56494E4700484F4D494E47004552522F
S11317884F52004553544F500053595354454D5FDD
S1091798524541445900D2
S9030000FC
